{"abi":[{"type":"function","name":"increment","inputs":[],"outputs":[],"stateMutability":"nonpayable"},{"type":"function","name":"number","inputs":[],"outputs":[{"name":"","type":"uint256","internalType":"uint256"}],"stateMutability":"view"},{"type":"event","name":"Increment","inputs":[{"name":"sender","type":"address","indexed":true,"internalType":"address"},{"name":"oldNumber","type":"uint256","indexed":false,"internalType":"uint256"},{"name":"newNumber","type":"uint256","indexed":false,"internalType":"uint256"},{"name":"increment","type":"uint256","indexed":false,"internalType":"uint256"}],"anonymous":false}],"bytecode":{"object":"0x608060405234801561000f575f80fd5b506101058061001d5f395ff3fe6080604052348015600e575f80fd5b50600436106030575f3560e01c80638381f58a146034578063d09de08a14604d575b5f80fd5b603b5f5481565b60405190815260200160405180910390f35b60536055565b005b5f54606081600160ab565b5f81905560408051838152602081019290925260019082015233907f666c04cbc29b120d4418ee557c1cef173f5bc35702d19e7df2a43f6982fb0a5d9060600160405180910390a250565b8082018082111560c957634e487b7160e01b5f52601160045260245ffd5b9291505056fea2646970667358221220dd6e5e362743ea1fc70ce9e8747d3a3e8a712165decee29e5cbbb8d3cbfa05bf64736f6c63430008180033","linkReferences":{}},"methodIdentifiers":{"increment()":"d09de08a","number()":"8381f58a"},"id":16}